{
  "contractName": "Owned",
  "abi": [
    {
      "constant": true,
      "inputs": [],
      "name": "owner",
      "outputs": [
        {
          "name": "",
          "type": "address"
        }
      ],
      "payable": false,
      "stateMutability": "view",
      "type": "function"
    },
    {
      "inputs": [],
      "payable": false,
      "stateMutability": "nonpayable",
      "type": "constructor"
    }
  ],
  "bytecode": "0x608060405234801561001057600080fd5b50336000806101000a81548173ffffffffffffffffffffffffffffffffffffffff021916908373ffffffffffffffffffffffffffffffffffffffff16021790555060e98061005f6000396000f3fe608060405260043610603f576000357c0100000000000000000000000000000000000000000000000000000000900463ffffffff1680638da5cb5b146044575b600080fd5b348015604f57600080fd5b5060566098565b604051808273ffffffffffffffffffffffffffffffffffffffff1673ffffffffffffffffffffffffffffffffffffffff16815260200191505060405180910390f35b6000809054906101000a900473ffffffffffffffffffffffffffffffffffffffff168156fea165627a7a7230582019368dc1ac5c6bf0c9935d692fc9453d1d2550c0541f3d6903dcfe8201813b900029",
  "source": "pragma solidity >=0.5.0;\r\n\r\ncontract Owned{\r\n    address public owner;\r\n\r\n    modifier onlyOwner(){\r\n        require (msg.sender == owner, \"only owner can call this\");\r\n        _;\r\n    }\r\n\r\n    constructor() public{\r\n        owner = msg.sender;\r\n    }   \r\n}",
  "sourcePath": "C:\\Users\\monto\\CURSO UDEMY\\token\\TokenFactory\\contracts\\Owned.sol",
  "compiler": {
    "name": "solc",
    "version": "0.5.0+commit.1d4f565a.Emscripten.clang"
  },
  "schemaVersion": "3.0.2",
  "updatedAt": "2019-02-26T16:42:46.592Z",
  "devdoc": {
    "methods": {}
  },
  "userdoc": {
    "methods": {}
  }
}