{
  "contractName": "TokenList",
  "abi": [
    {
      "constant": true,
      "inputs": [],
      "name": "owner",
      "outputs": [
        {
          "name": "",
          "type": "address"
        }
      ],
      "payable": false,
      "stateMutability": "view",
      "type": "function"
    },
    {
      "constant": false,
      "inputs": [
        {
          "name": "token",
          "type": "address"
        }
      ],
      "name": "addToken",
      "outputs": [],
      "payable": false,
      "stateMutability": "nonpayable",
      "type": "function"
    },
    {
      "constant": true,
      "inputs": [],
      "name": "getAllTokens",
      "outputs": [
        {
          "name": "",
          "type": "address[]"
        }
      ],
      "payable": false,
      "stateMutability": "view",
      "type": "function"
    }
  ],
  "bytecode": "0x6080604052336000806101000a81548173ffffffffffffffffffffffffffffffffffffffff021916908373ffffffffffffffffffffffffffffffffffffffff1602179055506105ca806100536000396000f3fe608060405260043610610057576000357c0100000000000000000000000000000000000000000000000000000000900463ffffffff1680632a5c792a1461005c5780638da5cb5b146100c8578063d48bfca71461011f575b600080fd5b34801561006857600080fd5b50610071610170565b6040518080602001828103825283818151815260200191508051906020019060200280838360005b838110156100b4578082015181840152602081019050610099565b505050509050019250505060405180910390f35b3480156100d457600080fd5b506100dd6102c2565b604051808273ffffffffffffffffffffffffffffffffffffffff1673ffffffffffffffffffffffffffffffffffffffff16815260200191505060405180910390f35b34801561012b57600080fd5b5061016e6004803603602081101561014257600080fd5b81019080803573ffffffffffffffffffffffffffffffffffffffff1690602001909291905050506102e7565b005b60606000809054906101000a900473ffffffffffffffffffffffffffffffffffffffff1673ffffffffffffffffffffffffffffffffffffffff163373ffffffffffffffffffffffffffffffffffffffff16141515610236576040517f08c379a00000000000000000000000000000000000000000000000000000000081526004018080602001828103825260188152602001807f6f6e6c79206f776e65722063616e2063616c6c2074686973000000000000000081525060200191505060405180910390fd5b60028054806020026020016040519081016040528092919081815260200182805480156102b857602002820191906000526020600020905b8160009054906101000a900473ffffffffffffffffffffffffffffffffffffffff1673ffffffffffffffffffffffffffffffffffffffff168152602001906001019080831161026e575b5050505050905090565b6000809054906101000a900473ffffffffffffffffffffffffffffffffffffffff1681565b6000809054906101000a900473ffffffffffffffffffffffffffffffffffffffff1673ffffffffffffffffffffffffffffffffffffffff163373ffffffffffffffffffffffffffffffffffffffff161415156103ab576040517f08c379a00000000000000000000000000000000000000000000000000000000081526004018080602001828103825260188152602001807f6f6e6c79206f776e65722063616e2063616c6c2074686973000000000000000081525060200191505060405180910390fd5b6103b4816104d7565b151515610429576040517f08c379a00000000000000000000000000000000000000000000000000000000081526004018080602001828103825260158152602001807f546f6b656e20616c7265616479206f6e206c697374000000000000000000000081525060200191505060405180910390fd5b600160028290806001815401808255809150509060018203906000526020600020016000909192909190916101000a81548173ffffffffffffffffffffffffffffffffffffffff021916908373ffffffffffffffffffffffffffffffffffffffff16021790555003600160008373ffffffffffffffffffffffffffffffffffffffff1673ffffffffffffffffffffffffffffffffffffffff1681526020019081526020016000208190555050565b60008060028054905014156104ef5760009050610599565b6002600160008473ffffffffffffffffffffffffffffffffffffffff1673ffffffffffffffffffffffffffffffffffffffff1681526020019081526020016000205481548110151561053d57fe5b9060005260206000200160009054906101000a900473ffffffffffffffffffffffffffffffffffffffff1673ffffffffffffffffffffffffffffffffffffffff168273ffffffffffffffffffffffffffffffffffffffff161490505b91905056fea165627a7a72305820159b0a2fbcb69fdfe8fdf7af2c0a2411a68656060f130d94f45b446bdda422aa0029",
  "source": "pragma solidity >=0.5.0;\r\n\r\nimport \"./Owned.sol\";\r\n\r\ncontract TokenList is Owned{\r\n    mapping (address => uint) tokens;\r\n    address[] tokenList;\r\n\r\n    function addToken(address token) public onlyOwner{\r\n        require(!isToken(token), \"Token already on list\");\r\n        tokens[token] = tokenList.push(token) - 1;\r\n    }\r\n\r\n    function isToken(address token) private view returns (bool isIndeed){\r\n        if(tokenList.length == 0) return false;\r\n        return (token == tokenList[tokens[token]]);\r\n    }\r\n\r\n    function getAllTokens() public view onlyOwner returns (address[] memory){\r\n        return tokenList;        \r\n    }\r\n}",
  "sourcePath": "C:\\Users\\monto\\CURSO UDEMY\\token\\TokenFactory\\contracts\\TokenList.sol",
  "compiler": {
    "name": "solc",
    "version": "0.5.0+commit.1d4f565a.Emscripten.clang"
  },
  "schemaVersion": "3.0.2",
  "updatedAt": "2019-02-26T16:42:46.594Z",
  "devdoc": {
    "methods": {}
  },
  "userdoc": {
    "methods": {}
  }
}